:020000040800F2
:10000000000002205D05000859030008AD05000846
:100010005B0300085D0300085F03000800000000A8
:100020000000000000000000000000006103000864
:1000300063030008000000003F020008AD0500084F
:10004000AD050008AD050008AD050008AD050008C8
:10005000AD050008AD050008AD050008AD050008B8
:10006000AD050008AD050008AD050008AD050008A8
:10007000AD050008AD050008AD050008AD05000898
:10008000AD050008AD050008AD050008AD05000888
:10009000AD050008AD050008AD050008AD05000878
:1000A000AD050008AD050008AD050008AD05000868
:1000B000AD050008AD050008AD050008AD05000858
:1000C000AD050008AD050008AD050008AD05000848
:1000D000AD050008AD050008AD050008AD05000838
:1000E000AD050008AD050008AD050008AD05000828
:1000F000AD050008AD050008AD050008AD05000818
:10010000AD050008AD050008AD050008AD05000807
:10011000AD050008AD050008AD050008AD050008F7
:10012000AD050008AD050008AD050008AD050008E7
:10013000AD0500080000000000000000AD0500084B
:10014000AD050008AD050008AD050008AD050008C7
:10015000AD050008AD050008AD050008AD050008B7
:10016000AD050008AD050008AD050008AD050008A7
:10017000AD050008AD05000800000000000000000B
:08018000AD050008AD05000803
:1001880010B5054C237833B9044B13B10448AFF3C9
:1001980000800123237010BD000000200000000033
:1001A800F805000808B5034B1BB103490348AFF332
:1001B800008008BD0000000004000020F8050008C9
:1001C800EFF3098141B1F1EE101A40F8041D20ED5A
:1001D800200A29490A6810607047B0EC200A02C852
:1001E800E1EE101A25490A6810607047EFF3108095
:1001F80072B6704780F31088704721484FF0FF01AE
:100208000170002080F309881E48016881F308887E
:100218001D48012101701D484FF08051016062B6F0
:10022800FEE71A484FF080510160704717484FF0B9
:1002380080510160704772B6EFF3098028B1203809
:1002480080E8F00F0C490968086000B5104880473D
:100258005DF804EB0F4810490A7802700648074910
:100268000A680260106890E8F00F203080F309886F
:100278004EF0F40E62B6704710030020F40200201E
:1002880022ED00E0940F00201E00002004ED00E0A5
:1002980029050008780000202400002082B0ADF86D
:1002A8000600002101E0013189B2BDF806309BB299
:1002B8008B4207D94AF210431A46013B9BB2002AE7
:1002C800FAD1F0E702B0704730B583B001210220BF
:1002D80000F018F94FF44075009501238DF80430AB
:1002E80000238DF806308DF807308DF80530054C61
:1002F8006946204600F0BCF82946204600F0FEF882
:1003080003B030BD0004024008B5FFF7DDFF4FF42D
:10031800FA70FFF7C3FF0D4C4FF40071204600F050
:10032800EFF84FF48071204600F0E8F84FF4FA70C7
:10033800FFF7B4FF4FF40071204600F0DFF84FF4E8
:100348008071204600F0DCF8E1E700BF00040240BD
:100358007047FEE7FEE7FEE77047704782B000236C
:10036800019300932A4A136843F480331360284B9F
:100378001B6803F400330093019B01330193009B36
:100388001BB9019BB3F5A06FF1D1214B1B6813F486
:10039800003F06D001230093009B012B04D002B03C
:1003A800704700230093F7E7194B1A6C42F080520C
:1003B8001A6418490A6842F480420A609A689A6086
:1003C8009A6842F400429A609A6842F4A0529A608D
:1003D800114A5A601A6842F080721A600C4B1B6806
:1003E80013F0007FFAD00D4B40F205621A60A3F5B6
:1003F80080639A6822F003029A609A6842F00202C7
:100408009A60034B9B6803F00C03082BF9D1C6E7ED
:10041800003802400070004019544007003C024078
:1004280010B5104CD4F8883043F47003C4F8883001
:100438000D4B1A6842F001021A60002199601A688F
:1004480022F0847222F480321A60084A5A601A68CC
:1004580022F480221A60D960FFF780FF4FF0006312
:10046800A36010BD00ED00E0003802401030002409
:1004780000230F2B41D8F0B425E08268164086602F
:1004880082684D79A5402A43826045689FB201265B
:10049800BE4025EA0605456045688A79BA4092B2A9
:1004A8002A434260C2689DB26E000325B54022EA25
:1004B8000502C260C268CD7905FA04F41443C46029
:1004C80001330F2B17D801229A400C68A243F7D1A9
:1004D80005685C000322A240D64325EA02020260B6
:1004E80002680D79A5402A4302600A79013AD2B21E
:1004F800012AD7D8C1E7F0BC70477047018370471D
:100508004183704721B1054A136B18431063704744
:10051800024A136B23EA0000106370470038024058
:1005280008B50A4B1B681A8A12F0040F06D1084B4B
:100538001B681A8A12F0040F04D108BD1868FFF767
:100548003FFEF4E71868FFF748FEF6E710030020BF
:10055800F4020020DFF834D0002103E00C4B5B5894
:10056800435004310B480C4B42189A42F6D30B4ABD
:1005780002E0002342F8043B094B9A42F9D3FFF703
:100588004FFF00F011F8FFF7BFFE70470000022090
:1005980018060008000000200000002000000020CD
:1005A80098110020FEE7000070B50D4D0D4C641B3E
:1005B800A4100026A64209D10B4D0C4C00F018F8E7
:1005C800641BA4100026A64205D170BD55F8043B53
:1005D80098470136EEE755F8043B98470136F2E7AD
:1005E8001006000810060008100600081406000887
:1005F800F8B500BFF8BC08BC9E467047F8B500BF08
:08060800F8BC08BC9E467047D7
:04061000AD01000830
:040614008901000850
:040000050800055D8D
:00000001FF
